{
  "_format": "hh-sol-artifact-1",
  "contractName": "MzTz",
  "sourceName": "contracts/MzTz.sol",
  "abi": [
    {
      "inputs": [],
      "stateMutability": "nonpayable",
      "type": "constructor"
    },
    {
      "inputs": [
        {
          "internalType": "address",
          "name": "operator",
          "type": "address"
        }
      ],
      "name": "OperatorNotAllowed",
      "type": "error"
    },
    {
      "anonymous": false,
      "inputs": [
        {
          "indexed": true,
          "internalType": "address",
          "name": "owner",
          "type": "address"
        },
        {
          "indexed": true,
          "internalType": "address",
          "name": "approved",
          "type": "address"
        },
        {
          "indexed": true,
          "internalType": "uint256",
          "name": "tokenId",
          "type": "uint256"
        }
      ],
      "name": "Approval",
      "type": "event"
    },
    {
      "anonymous": false,
      "inputs": [
        {
          "indexed": true,
          "internalType": "address",
          "name": "owner",
          "type": "address"
        },
        {
          "indexed": true,
          "internalType": "address",
          "name": "operator",
          "type": "address"
        },
        {
          "indexed": false,
          "internalType": "bool",
          "name": "approved",
          "type": "bool"
        }
      ],
      "name": "ApprovalForAll",
      "type": "event"
    },
    {
      "anonymous": false,
      "inputs": [
        {
          "indexed": true,
          "internalType": "address",
          "name": "previousOwner",
          "type": "address"
        },
        {
          "indexed": true,
          "internalType": "address",
          "name": "newOwner",
          "type": "address"
        }
      ],
      "name": "OwnershipTransferred",
      "type": "event"
    },
    {
      "anonymous": false,
      "inputs": [
        {
          "indexed": true,
          "internalType": "uint256",
          "name": "supply",
          "type": "uint256"
        }
      ],
      "name": "SupplyChanged",
      "type": "event"
    },
    {
      "anonymous": false,
      "inputs": [
        {
          "indexed": true,
          "internalType": "address",
          "name": "from",
          "type": "address"
        },
        {
          "indexed": true,
          "internalType": "address",
          "name": "to",
          "type": "address"
        },
        {
          "indexed": true,
          "internalType": "uint256",
          "name": "tokenId",
          "type": "uint256"
        }
      ],
      "name": "Transfer",
      "type": "event"
    },
    {
      "inputs": [],
      "name": "OPERATOR_FILTER_REGISTRY",
      "outputs": [
        {
          "internalType": "contract IOperatorFilterRegistry",
          "name": "",
          "type": "address"
        }
      ],
      "stateMutability": "view",
      "type": "function"
    },
    {
      "inputs": [
        {
          "internalType": "address",
          "name": "operator",
          "type": "address"
        },
        {
          "internalType": "uint256",
          "name": "tokenId",
          "type": "uint256"
        }
      ],
      "name": "approve",
      "outputs": [],
      "stateMutability": "nonpayable",
      "type": "function"
    },
    {
      "inputs": [],
      "name": "availableTokenCount",
      "outputs": [
        {
          "internalType": "uint256",
          "name": "",
          "type": "uint256"
        }
      ],
      "stateMutability": "view",
      "type": "function"
    },
    {
      "inputs": [
        {
          "internalType": "address",
          "name": "owner",
          "type": "address"
        }
      ],
      "name": "balanceOf",
      "outputs": [
        {
          "internalType": "uint256",
          "name": "",
          "type": "uint256"
        }
      ],
      "stateMutability": "view",
      "type": "function"
    },
    {
      "inputs": [],
      "name": "cost",
      "outputs": [
        {
          "internalType": "uint256",
          "name": "",
          "type": "uint256"
        }
      ],
      "stateMutability": "view",
      "type": "function"
    },
    {
      "inputs": [
        {
          "internalType": "uint256",
          "name": "tokenId",
          "type": "uint256"
        }
      ],
      "name": "getApproved",
      "outputs": [
        {
          "internalType": "address",
          "name": "",
          "type": "address"
        }
      ],
      "stateMutability": "view",
      "type": "function"
    },
    {
      "inputs": [],
      "name": "hiddenMetadataUri",
      "outputs": [
        {
          "internalType": "string",
          "name": "",
          "type": "string"
        }
      ],
      "stateMutability": "view",
      "type": "function"
    },
    {
      "inputs": [
        {
          "internalType": "address",
          "name": "owner",
          "type": "address"
        },
        {
          "internalType": "address",
          "name": "operator",
          "type": "address"
        }
      ],
      "name": "isApprovedForAll",
      "outputs": [
        {
          "internalType": "bool",
          "name": "",
          "type": "bool"
        }
      ],
      "stateMutability": "view",
      "type": "function"
    },
    {
      "inputs": [],
      "name": "maxMintAmountPerTx",
      "outputs": [
        {
          "internalType": "uint256",
          "name": "",
          "type": "uint256"
        }
      ],
      "stateMutability": "view",
      "type": "function"
    },
    {
      "inputs": [],
      "name": "maxSupply",
      "outputs": [
        {
          "internalType": "uint256",
          "name": "",
          "type": "uint256"
        }
      ],
      "stateMutability": "view",
      "type": "function"
    },
    {
      "inputs": [
        {
          "internalType": "uint8",
          "name": "_amount",
          "type": "uint8"
        }
      ],
      "name": "mint",
      "outputs": [],
      "stateMutability": "payable",
      "type": "function"
    },
    {
      "inputs": [
        {
          "internalType": "uint256",
          "name": "_mintAmount",
          "type": "uint256"
        },
        {
          "internalType": "address",
          "name": "_receiver",
          "type": "address"
        }
      ],
      "name": "mintForAddress",
      "outputs": [],
      "stateMutability": "nonpayable",
      "type": "function"
    },
    {
      "inputs": [],
      "name": "name",
      "outputs": [
        {
          "internalType": "string",
          "name": "",
          "type": "string"
        }
      ],
      "stateMutability": "view",
      "type": "function"
    },
    {
      "inputs": [],
      "name": "owner",
      "outputs": [
        {
          "internalType": "address",
          "name": "",
          "type": "address"
        }
      ],
      "stateMutability": "view",
      "type": "function"
    },
    {
      "inputs": [
        {
          "internalType": "uint256",
          "name": "tokenId",
          "type": "uint256"
        }
      ],
      "name": "ownerOf",
      "outputs": [
        {
          "internalType": "address",
          "name": "",
          "type": "address"
        }
      ],
      "stateMutability": "view",
      "type": "function"
    },
    {
      "inputs": [],
      "name": "paused",
      "outputs": [
        {
          "internalType": "bool",
          "name": "",
          "type": "bool"
        }
      ],
      "stateMutability": "view",
      "type": "function"
    },
    {
      "inputs": [],
      "name": "renounceOwnership",
      "outputs": [],
      "stateMutability": "nonpayable",
      "type": "function"
    },
    {
      "inputs": [],
      "name": "revealed",
      "outputs": [
        {
          "internalType": "bool",
          "name": "",
          "type": "bool"
        }
      ],
      "stateMutability": "view",
      "type": "function"
    },
    {
      "inputs": [
        {
          "internalType": "address",
          "name": "from",
          "type": "address"
        },
        {
          "internalType": "address",
          "name": "to",
          "type": "address"
        },
        {
          "internalType": "uint256",
          "name": "tokenId",
          "type": "uint256"
        }
      ],
      "name": "safeTransferFrom",
      "outputs": [],
      "stateMutability": "nonpayable",
      "type": "function"
    },
    {
      "inputs": [
        {
          "internalType": "address",
          "name": "from",
          "type": "address"
        },
        {
          "internalType": "address",
          "name": "to",
          "type": "address"
        },
        {
          "internalType": "uint256",
          "name": "tokenId",
          "type": "uint256"
        },
        {
          "internalType": "bytes",
          "name": "data",
          "type": "bytes"
        }
      ],
      "name": "safeTransferFrom",
      "outputs": [],
      "stateMutability": "nonpayable",
      "type": "function"
    },
    {
      "inputs": [
        {
          "internalType": "address",
          "name": "operator",
          "type": "address"
        },
        {
          "internalType": "bool",
          "name": "approved",
          "type": "bool"
        }
      ],
      "name": "setApprovalForAll",
      "outputs": [],
      "stateMutability": "nonpayable",
      "type": "function"
    },
    {
      "inputs": [
        {
          "internalType": "uint256",
          "name": "_cost",
          "type": "uint256"
        }
      ],
      "name": "setCost",
      "outputs": [],
      "stateMutability": "nonpayable",
      "type": "function"
    },
    {
      "inputs": [
        {
          "internalType": "string",
          "name": "_hiddenMetadataUri",
          "type": "string"
        }
      ],
      "name": "setHiddenMetadataUri",
      "outputs": [],
      "stateMutability": "nonpayable",
      "type": "function"
    },
    {
      "inputs": [
        {
          "internalType": "uint256",
          "name": "_maxMintAmountPerTx",
          "type": "uint256"
        }
      ],
      "name": "setMaxMintAmountPerTx",
      "outputs": [],
      "stateMutability": "nonpayable",
      "type": "function"
    },
    {
      "inputs": [
        {
          "internalType": "bool",
          "name": "_state",
          "type": "bool"
        }
      ],
      "name": "setPaused",
      "outputs": [],
      "stateMutability": "nonpayable",
      "type": "function"
    },
    {
      "inputs": [
        {
          "internalType": "bool",
          "name": "_state",
          "type": "bool"
        }
      ],
      "name": "setRevealed",
      "outputs": [],
      "stateMutability": "nonpayable",
      "type": "function"
    },
    {
      "inputs": [
        {
          "internalType": "string",
          "name": "_uriPrefix",
          "type": "string"
        }
      ],
      "name": "setUriPrefix",
      "outputs": [],
      "stateMutability": "nonpayable",
      "type": "function"
    },
    {
      "inputs": [
        {
          "internalType": "string",
          "name": "_uriSuffix",
          "type": "string"
        }
      ],
      "name": "setUriSuffix",
      "outputs": [],
      "stateMutability": "nonpayable",
      "type": "function"
    },
    {
      "inputs": [
        {
          "internalType": "bytes4",
          "name": "interfaceId",
          "type": "bytes4"
        }
      ],
      "name": "supportsInterface",
      "outputs": [
        {
          "internalType": "bool",
          "name": "",
          "type": "bool"
        }
      ],
      "stateMutability": "view",
      "type": "function"
    },
    {
      "inputs": [],
      "name": "symbol",
      "outputs": [
        {
          "internalType": "string",
          "name": "",
          "type": "string"
        }
      ],
      "stateMutability": "view",
      "type": "function"
    },
    {
      "inputs": [],
      "name": "tokenCount",
      "outputs": [
        {
          "internalType": "uint256",
          "name": "",
          "type": "uint256"
        }
      ],
      "stateMutability": "view",
      "type": "function"
    },
    {
      "inputs": [
        {
          "internalType": "uint256",
          "name": "_tokenId",
          "type": "uint256"
        }
      ],
      "name": "tokenURI",
      "outputs": [
        {
          "internalType": "string",
          "name": "",
          "type": "string"
        }
      ],
      "stateMutability": "view",
      "type": "function"
    },
    {
      "inputs": [],
      "name": "totalSupply",
      "outputs": [
        {
          "internalType": "uint256",
          "name": "",
          "type": "uint256"
        }
      ],
      "stateMutability": "view",
      "type": "function"
    },
    {
      "inputs": [
        {
          "internalType": "address",
          "name": "from",
          "type": "address"
        },
        {
          "internalType": "address",
          "name": "to",
          "type": "address"
        },
        {
          "internalType": "uint256",
          "name": "tokenId",
          "type": "uint256"
        }
      ],
      "name": "transferFrom",
      "outputs": [],
      "stateMutability": "nonpayable",
      "type": "function"
    },
    {
      "inputs": [
        {
          "internalType": "address",
          "name": "newOwner",
          "type": "address"
        }
      ],
      "name": "transferOwnership",
      "outputs": [],
      "stateMutability": "nonpayable",
      "type": "function"
    },
    {
      "inputs": [],
      "name": "uriPrefix",
      "outputs": [
        {
          "internalType": "string",
          "name": "",
          "type": "string"
        }
      ],
      "stateMutability": "view",
      "type": "function"
    },
    {
      "inputs": [],
      "name": "uriSuffix",
      "outputs": [
        {
          "internalType": "string",
          "name": "",
          "type": "string"
        }
      ],
      "stateMutability": "view",
      "type": "function"
    },
    {
      "inputs": [
        {
          "internalType": "address",
          "name": "_owner",
          "type": "address"
        }
      ],
      "name": "walletOfOwner",
      "outputs": [
        {
          "internalType": "uint256[]",
          "name": "",
          "type": "uint256[]"
        }
      ],
      "stateMutability": "view",
      "type": "function"
    },
    {
      "inputs": [],
      "name": "withdraw",
      "outputs": [],
      "stateMutability": "payable",
      "type": "function"
    }
  ],
  "bytecode": "0x60a060405260006080908152600c906200001a908262000a97565b50604080518082019091526005815264173539b7b760d91b6020820152600d9062000046908262000a97565b5066b1a2bc2ec50000600f55612710601055600a6011556012805461ffff19166101001790553480156200007957600080fd5b50733cc6cdda760b79bafa08df41ecfa224f810dceb660016127106001816040518060400160405280600a8152602001694d6f7a7a69546f7a7a6960b01b8152506040518060400160405280600381526020016226aa2d60e91b8152508160009081620000e7919062000a97565b506001620000f6828262000a97565b505050620001136200010d6200029760201b60201c565b6200029b565b600855600a55506daaeb6d7670e522a718067333cd4e3b156200025f578015620001ad57604051633e9f1edf60e11b81523060048201526001600160a01b03831660248201526daaeb6d7670e522a718067333cd4e90637d3e3dbe906044015b600060405180830381600087803b1580156200018e57600080fd5b505af1158015620001a3573d6000803e3d6000fd5b505050506200025f565b6001600160a01b03821615620001fe5760405163a0af290360e01b81523060048201526001600160a01b03831660248201526daaeb6d7670e522a718067333cd4e9063a0af29039060440162000173565b604051632210724360e11b81523060048201526daaeb6d7670e522a718067333cd4e90634420e48690602401600060405180830381600087803b1580156200024557600080fd5b505af11580156200025a573d6000803e3d6000fd5b505050505b5050620002856040518060800160405280604e81526020016200312d604e9139620002ed565b62000291603262000309565b62000caa565b3390565b600680546001600160a01b038381166001600160a01b0319831681179093556040519116919082907f8be0079c531659141344cd1fd0a4f28419497f9722a3daafe3b4186f6b6457e090600090a35050565b620002f7620003c6565b600e62000305828262000a97565b5050565b6008546200031662000428565b6200032390600162000b79565b11156200032f57600080fd5b600060016200033d62000446565b62000349919062000b95565b10156200035557600080fd5b6006546001600160a01b0316331462000388578060ff16600f546200037b919062000bab565b3410156200038857600080fd5b60015b8160ff16811162000305576000620003a262000461565b9050620003b0338262000618565b5080620003bd8162000bc5565b9150506200038b565b6006546001600160a01b03163314620004265760405162461bcd60e51b815260206004820181905260248201527f4f776e61626c653a2063616c6c6572206973206e6f7420746865206f776e657260448201526064015b60405180910390fd5b565b60006200044160076200063a60201b62000f8a1760201c565b905090565b60006200045262000428565b60085462000441919062000b95565b6000806200046e62000446565b11620004bd5760405162461bcd60e51b815260206004820152601860248201527f4e6f206d6f726520746f6b656e7320617661696c61626c65000000000000000060448201526064016200041d565b6000620004c962000428565b600854620004d8919062000b95565b6040516001600160601b031933606090811b8216602084015241901b166034820152446048820152456068820152426088820152909150600090829060a8016040516020818303038152906040528051906020012060001c6200053c919062000be1565b6000818152600960205260408120549192509081036200055e5750806200056f565b506000818152600960205260409020545b600960006200058060018662000b95565b815260200190815260200160002054600003620005b957620005a460018462000b95565b600083815260096020526040902055620005eb565b60096000620005ca60018662000b95565b81526020808201929092526040908101600090812054858252600990935220555b620006006200063e60201b62000f8e1760201c565b50600a5462000610908262000b79565b935050505090565b620003058282604051806020016040528060008152506200067660201b60201c565b5490565b6000806200065860076200063a60201b62000f8a1760201c565b9050620006716007620006ee60201b62000faf1760201c565b919050565b620006828383620006f7565b62000691600084848462000888565b620006e95760405162461bcd60e51b815260206004820152603260248201526000805160206200310d83398151915260448201527131b2b4bb32b91034b6b83632b6b2b73a32b960711b60648201526084016200041d565b505050565b80546001019055565b6001600160a01b0382166200074f5760405162461bcd60e51b815260206004820181905260248201527f4552433732313a206d696e7420746f20746865207a65726f206164647265737360448201526064016200041d565b6000818152600260205260409020546001600160a01b031615620007b65760405162461bcd60e51b815260206004820152601c60248201527f4552433732313a20746f6b656e20616c7265616479206d696e7465640000000060448201526064016200041d565b6000818152600260205260409020546001600160a01b0316156200081d5760405162461bcd60e51b815260206004820152601c60248201527f4552433732313a20746f6b656e20616c7265616479206d696e7465640000000060448201526064016200041d565b6001600160a01b038216600081815260036020908152604080832080546001019055848352600290915280822080546001600160a01b0319168417905551839291907fddf252ad1be2c89b69c2b068fc378daa952ba7f163c4a11628f55a4df523b3ef908290a45050565b6000620008a9846001600160a01b0316620009e460201b62000fb81760201c565b15620009d857604051630a85bd0160e11b81526001600160a01b0385169063150b7a0290620008e390339089908890889060040162000c04565b6020604051808303816000875af192505050801562000921575060408051601f3d908101601f191682019092526200091e9181019062000c77565b60015b620009bd573d80801562000952576040519150601f19603f3d011682016040523d82523d6000602084013e62000957565b606091505b508051600003620009b55760405162461bcd60e51b815260206004820152603260248201526000805160206200310d83398151915260448201527131b2b4bb32b91034b6b83632b6b2b73a32b960711b60648201526084016200041d565b805181602001fd5b6001600160e01b031916630a85bd0160e11b149050620009dc565b5060015b949350505050565b6001600160a01b03163b151590565b634e487b7160e01b600052604160045260246000fd5b600181811c9082168062000a1e57607f821691505b60208210810362000a3f57634e487b7160e01b600052602260045260246000fd5b50919050565b601f821115620006e957600081815260208120601f850160051c8101602086101562000a6e5750805b601f850160051c820191505b8181101562000a8f5782815560010162000a7a565b505050505050565b81516001600160401b0381111562000ab35762000ab3620009f3565b62000acb8162000ac4845462000a09565b8462000a45565b602080601f83116001811462000b03576000841562000aea5750858301515b600019600386901b1c1916600185901b17855562000a8f565b600085815260208120601f198616915b8281101562000b345788860151825594840194600190910190840162000b13565b508582101562000b535787850151600019600388901b60f8161c191681555b5050505050600190811b01905550565b634e487b7160e01b600052601160045260246000fd5b8082018082111562000b8f5762000b8f62000b63565b92915050565b8181038181111562000b8f5762000b8f62000b63565b808202811582820484141762000b8f5762000b8f62000b63565b60006001820162000bda5762000bda62000b63565b5060010190565b60008262000bff57634e487b7160e01b600052601260045260246000fd5b500690565b600060018060a01b038087168352602081871681850152856040850152608060608501528451915081608085015260005b8281101562000c535785810182015185820160a00152810162000c35565b5050600060a0828501015260a0601f19601f83011684010191505095945050505050565b60006020828403121562000c8a57600080fd5b81516001600160e01b03198116811462000ca357600080fd5b9392505050565b6124538062000cba6000396000f3fe6080604052600436106102305760003560e01c80636352211e1161012e578063a45ba8e7116100ab578063e0a808531161006f578063e0a808531461062a578063e14ca3531461064a578063e985e9c51461065f578063efbd73f41461067f578063f2fde38b1461069f57600080fd5b8063a45ba8e71461059f578063b071401b146105b4578063b88d4fde146105d4578063c87b56dd146105f4578063d5abeb011461061457600080fd5b80638da5cb5b116100f25780638da5cb5b1461052157806394354fd01461053f57806395d89b41146105555780639f181b5e1461056a578063a22cb4651461057f57600080fd5b80636352211e146104995780636ecd2306146104b957806370a08231146104cc578063715018a6146104ec5780637ec4a6591461050157600080fd5b80633ccfd60b116101bc5780634fdd43cb116101805780634fdd43cb1461041657806351830227146104365780635503a0e8146104555780635c975abb1461046a57806362b99ad41461048457600080fd5b80633ccfd60b1461037f57806341f434341461038757806342842e0e146103a9578063438b6300146103c957806344a0d68a146103f657600080fd5b806313faede61161020357806313faede6146102e657806316ba10e01461030a57806316c38b3c1461032a57806318160ddd1461034a57806323b872dd1461035f57600080fd5b806301ffc9a71461023557806306fdde031461026a578063081812fc1461028c578063095ea7b3146102c4575b600080fd5b34801561024157600080fd5b50610255610250366004611c95565b6106bf565b60405190151581526020015b60405180910390f35b34801561027657600080fd5b5061027f610711565b6040516102619190611d02565b34801561029857600080fd5b506102ac6102a7366004611d15565b6107a3565b6040516001600160a01b039091168152602001610261565b3480156102d057600080fd5b506102e46102df366004611d45565b6107ca565b005b3480156102f257600080fd5b506102fc600f5481565b604051908152602001610261565b34801561031657600080fd5b506102e4610325366004611dfb565b6107e3565b34801561033657600080fd5b506102e4610345366004611e52565b6107fb565b34801561035657600080fd5b506008546102fc565b34801561036b57600080fd5b506102e461037a366004611e6f565b610816565b6102e4610841565b34801561039357600080fd5b506102ac6daaeb6d7670e522a718067333cd4e81565b3480156103b557600080fd5b506102e46103c4366004611e6f565b61086f565b3480156103d557600080fd5b506103e96103e4366004611eab565b610894565b6040516102619190611ec6565b34801561040257600080fd5b506102e4610411366004611d15565b610974565b34801561042257600080fd5b506102e4610431366004611dfb565b610981565b34801561044257600080fd5b5060125461025590610100900460ff1681565b34801561046157600080fd5b5061027f610995565b34801561047657600080fd5b506012546102559060ff1681565b34801561049057600080fd5b5061027f610a23565b3480156104a557600080fd5b506102ac6104b4366004611d15565b610a30565b6102e46104c7366004611f0a565b610a95565b3480156104d857600080fd5b506102fc6104e7366004611eab565b610b3c565b3480156104f857600080fd5b506102e4610bc2565b34801561050d57600080fd5b506102e461051c366004611dfb565b610bd4565b34801561052d57600080fd5b506006546001600160a01b03166102ac565b34801561054b57600080fd5b506102fc60115481565b34801561056157600080fd5b5061027f610be8565b34801561057657600080fd5b506102fc610bf7565b34801561058b57600080fd5b506102e461059a366004611f2d565b610c07565b3480156105ab57600080fd5b5061027f610c1b565b3480156105c057600080fd5b506102e46105cf366004611d15565b610c28565b3480156105e057600080fd5b506102e46105ef366004611f64565b610c35565b34801561060057600080fd5b5061027f61060f366004611d15565b610c62565b34801561062057600080fd5b506102fc60105481565b34801561063657600080fd5b506102e4610645366004611e52565b610de6565b34801561065657600080fd5b506102fc610e08565b34801561066b57600080fd5b5061025561067a366004611fe0565b610e1f565b34801561068b57600080fd5b506102e461069a366004612013565b610e4d565b3480156106ab57600080fd5b506102e46106ba366004611eab565b610f11565b60006001600160e01b031982166380ac58cd60e01b14806106f057506001600160e01b03198216635b5e139f60e01b145b8061070b57506301ffc9a760e01b6001600160e01b03198316145b92915050565b60606000805461072090612036565b80601f016020809104026020016040519081016040528092919081815260200182805461074c90612036565b80156107995780601f1061076e57610100808354040283529160200191610799565b820191906000526020600020905b81548152906001019060200180831161077c57829003601f168201915b5050505050905090565b60006107ae82610fc7565b506000908152600460205260409020546001600160a01b031690565b816107d481611026565b6107de83836110df565b505050565b6107eb6111ef565b600d6107f782826120be565b5050565b6108036111ef565b6012805460ff1916911515919091179055565b826001600160a01b03811633146108305761083033611026565b61083b848484611249565b50505050565b6108496111ef565b60405133904780156108fc02916000818181858888f1935050505061086d57600080fd5b565b826001600160a01b03811633146108895761088933611026565b61083b84848461127a565b606060006108a183610b3c565b905060008167ffffffffffffffff8111156108be576108be611d6f565b6040519080825280602002602001820160405280156108e7578160200160208202803683370190505b509050600160005b838110801561090057506010548211155b1561096a57600061091083610a30565b9050866001600160a01b0316816001600160a01b031603610957578284838151811061093e5761093e61217e565b602090810291909101015281610953816121aa565b9250505b82610961816121aa565b935050506108ef565b5090949350505050565b61097c6111ef565b600f55565b6109896111ef565b600e6107f782826120be565b600d80546109a290612036565b80601f01602080910402602001604051908101604052809291908181526020018280546109ce90612036565b8015610a1b5780601f106109f057610100808354040283529160200191610a1b565b820191906000526020600020905b8154815290600101906020018083116109fe57829003601f168201915b505050505081565b600c80546109a290612036565b6000818152600260205260408120546001600160a01b03168061070b5760405162461bcd60e51b8152602060048201526018602482015277115490cdcc8c4e881a5b9d985b1a59081d1bdad95b88125160421b60448201526064015b60405180910390fd5b600854610aa0610bf7565b610aab9060016121c3565b1115610ab657600080fd5b60006001610ac2610e08565b610acc91906121d6565b1015610ad757600080fd5b6006546001600160a01b03163314610b06578060ff16600f54610afa91906121e9565b341015610b0657600080fd5b60015b8160ff1681116107f7576000610b1d611295565b9050610b29338261142e565b5080610b34816121aa565b915050610b09565b60006001600160a01b038216610ba65760405162461bcd60e51b815260206004820152602960248201527f4552433732313a2061646472657373207a65726f206973206e6f7420612076616044820152683634b21037bbb732b960b91b6064820152608401610a8c565b506001600160a01b031660009081526003602052604090205490565b610bca6111ef565b61086d6000611448565b610bdc6111ef565b600c6107f782826120be565b60606001805461072090612036565b6000610c0260075490565b905090565b81610c1181611026565b6107de838361149a565b600e80546109a290612036565b610c306111ef565b601155565b836001600160a01b0381163314610c4f57610c4f33611026565b610c5b858585856114a5565b5050505050565b6000818152600260205260409020546060906001600160a01b0316610ce15760405162461bcd60e51b815260206004820152602f60248201527f4552433732314d657461646174613a2055524920717565727920666f72206e6f60448201526e3732bc34b9ba32b73a103a37b5b2b760891b6064820152608401610a8c565b601254610100900460ff161515600003610d8757600e8054610d0290612036565b80601f0160208091040260200160405190810160405280929190818152602001828054610d2e90612036565b8015610d7b5780601f10610d5057610100808354040283529160200191610d7b565b820191906000526020600020905b815481529060010190602001808311610d5e57829003601f168201915b50505050509050919050565b6000610d916114d7565b90506000815111610db15760405180602001604052806000815250610ddf565b80610dbb846114e6565b600d604051602001610dcf93929190612200565b6040516020818303038152906040525b9392505050565b610dee6111ef565b601280549115156101000261ff0019909216919091179055565b6000610e12610bf7565b600854610c0291906121d6565b6001600160a01b03918216600090815260056020908152604080832093909416825291909152205460ff1690565b81600081118015610e6057506011548111155b610ea35760405162461bcd60e51b8152602060048201526014602482015273496e76616c6964206d696e7420616d6f756e742160601b6044820152606401610a8c565b60105481610eb0600b5490565b610eba91906121c3565b1115610eff5760405162461bcd60e51b81526020600482015260146024820152734d617820737570706c792065786365656465642160601b6044820152606401610a8c565b610f076111ef565b6107de8284611579565b610f196111ef565b6001600160a01b038116610f7e5760405162461bcd60e51b815260206004820152602660248201527f4f776e61626c653a206e6577206f776e657220697320746865207a65726f206160448201526564647265737360d01b6064820152608401610a8c565b610f8781611448565b50565b5490565b600080610f9a60075490565b9050610faa600780546001019055565b919050565b80546001019055565b6001600160a01b03163b151590565b6000818152600260205260409020546001600160a01b0316610f875760405162461bcd60e51b8152602060048201526018602482015277115490cdcc8c4e881a5b9d985b1a59081d1bdad95b88125160421b6044820152606401610a8c565b6daaeb6d7670e522a718067333cd4e3b15610f8757604051633185c44d60e21b81523060048201526001600160a01b03821660248201526daaeb6d7670e522a718067333cd4e9063c617113490604401602060405180830381865afa158015611093573d6000803e3d6000fd5b505050506040513d601f19601f820116820180604052508101906110b791906122a0565b610f8757604051633b79c77360e21b81526001600160a01b0382166004820152602401610a8c565b60006110ea82610a30565b9050806001600160a01b0316836001600160a01b0316036111575760405162461bcd60e51b815260206004820152602160248201527f4552433732313a20617070726f76616c20746f2063757272656e74206f776e656044820152603960f91b6064820152608401610a8c565b336001600160a01b038216148061117357506111738133610e1f565b6111e55760405162461bcd60e51b815260206004820152603d60248201527f4552433732313a20617070726f76652063616c6c6572206973206e6f7420746f60448201527f6b656e206f776e6572206f7220617070726f76656420666f7220616c6c0000006064820152608401610a8c565b6107de83836115b6565b6006546001600160a01b0316331461086d5760405162461bcd60e51b815260206004820181905260248201527f4f776e61626c653a2063616c6c6572206973206e6f7420746865206f776e65726044820152606401610a8c565b6112533382611624565b61126f5760405162461bcd60e51b8152600401610a8c906122bd565b6107de838383611683565b6107de83838360405180602001604052806000815250610c35565b6000806112a0610e08565b116112ed5760405162461bcd60e51b815260206004820152601860248201527f4e6f206d6f726520746f6b656e7320617661696c61626c6500000000000000006044820152606401610a8c565b60006112f7610bf7565b60085461130491906121d6565b6040516bffffffffffffffffffffffff1933606090811b8216602084015241901b166034820152446048820152456068820152426088820152909150600090829060a8016040516020818303038152906040528051906020012060001c61136b919061230a565b60008181526009602052604081205491925090810361138b57508061139c565b506000818152600960205260409020545b600960006113ab6001866121d6565b8152602001908152602001600020546000036113e0576113cc6001846121d6565b600083815260096020526040902055611410565b600960006113ef6001866121d6565b81526020808201929092526040908101600090812054858252600990935220555b611418610f8e565b50600a5461142690826121c3565b935050505090565b6107f78282604051806020016040528060008152506117e7565b600680546001600160a01b038381166001600160a01b0319831681179093556040519116919082907f8be0079c531659141344cd1fd0a4f28419497f9722a3daafe3b4186f6b6457e090600090a35050565b6107f733838361181a565b6114af3383611624565b6114cb5760405162461bcd60e51b8152600401610a8c906122bd565b61083b848484846118e8565b6060600c805461072090612036565b606060006114f38361191b565b600101905060008167ffffffffffffffff81111561151357611513611d6f565b6040519080825280601f01601f19166020018201604052801561153d576020820181803683370190505b5090508181016020015b600019016f181899199a1a9b1b9c1cb0b131b232b360811b600a86061a8153600a850494508461154757509392505050565b60005b818110156107de57611592600b80546001019055565b6115a48361159f600b5490565b61142e565b806115ae816121aa565b91505061157c565b600081815260046020526040902080546001600160a01b0319166001600160a01b03841690811790915581906115eb82610a30565b6001600160a01b03167f8c5be1e5ebec7d5bd14f71427d1e84f3dd0314c0f7b2291e5b200ac8c7c3b92560405160405180910390a45050565b60008061163083610a30565b9050806001600160a01b0316846001600160a01b0316148061165757506116578185610e1f565b8061167b5750836001600160a01b0316611670846107a3565b6001600160a01b0316145b949350505050565b826001600160a01b031661169682610a30565b6001600160a01b0316146116bc5760405162461bcd60e51b8152600401610a8c9061232c565b6001600160a01b03821661171e5760405162461bcd60e51b8152602060048201526024808201527f4552433732313a207472616e7366657220746f20746865207a65726f206164646044820152637265737360e01b6064820152608401610a8c565b826001600160a01b031661173182610a30565b6001600160a01b0316146117575760405162461bcd60e51b8152600401610a8c9061232c565b600081815260046020908152604080832080546001600160a01b03199081169091556001600160a01b0387811680865260038552838620805460001901905590871680865283862080546001019055868652600290945282852080549092168417909155905184937fddf252ad1be2c89b69c2b068fc378daa952ba7f163c4a11628f55a4df523b3ef91a4505050565b6117f183836119f3565b6117fe6000848484611b7e565b6107de5760405162461bcd60e51b8152600401610a8c90612371565b816001600160a01b0316836001600160a01b03160361187b5760405162461bcd60e51b815260206004820152601960248201527f4552433732313a20617070726f766520746f2063616c6c6572000000000000006044820152606401610a8c565b6001600160a01b03838116600081815260056020908152604080832094871680845294825291829020805460ff191686151590811790915591519182527f17307eab39ab6107e8899845ad3d59bd9653f200f220920489ca2b5937696c31910160405180910390a3505050565b6118f3848484611683565b6118ff84848484611b7e565b61083b5760405162461bcd60e51b8152600401610a8c90612371565b60008072184f03e93ff9f4daa797ed6e38ed64bf6a1f0160401b831061195a5772184f03e93ff9f4daa797ed6e38ed64bf6a1f0160401b830492506040015b6d04ee2d6d415b85acef81000000008310611986576d04ee2d6d415b85acef8100000000830492506020015b662386f26fc1000083106119a457662386f26fc10000830492506010015b6305f5e10083106119bc576305f5e100830492506008015b61271083106119d057612710830492506004015b606483106119e2576064830492506002015b600a831061070b5760010192915050565b6001600160a01b038216611a495760405162461bcd60e51b815260206004820181905260248201527f4552433732313a206d696e7420746f20746865207a65726f20616464726573736044820152606401610a8c565b6000818152600260205260409020546001600160a01b031615611aae5760405162461bcd60e51b815260206004820152601c60248201527f4552433732313a20746f6b656e20616c7265616479206d696e746564000000006044820152606401610a8c565b6000818152600260205260409020546001600160a01b031615611b135760405162461bcd60e51b815260206004820152601c60248201527f4552433732313a20746f6b656e20616c7265616479206d696e746564000000006044820152606401610a8c565b6001600160a01b038216600081815260036020908152604080832080546001019055848352600290915280822080546001600160a01b0319168417905551839291907fddf252ad1be2c89b69c2b068fc378daa952ba7f163c4a11628f55a4df523b3ef908290a45050565b60006001600160a01b0384163b15611c7457604051630a85bd0160e11b81526001600160a01b0385169063150b7a0290611bc29033908990889088906004016123c3565b6020604051808303816000875af1925050508015611bfd575060408051601f3d908101601f19168201909252611bfa91810190612400565b60015b611c5a573d808015611c2b576040519150601f19603f3d011682016040523d82523d6000602084013e611c30565b606091505b508051600003611c525760405162461bcd60e51b8152600401610a8c90612371565b805181602001fd5b6001600160e01b031916630a85bd0160e11b14905061167b565b506001949350505050565b6001600160e01b031981168114610f8757600080fd5b600060208284031215611ca757600080fd5b8135610ddf81611c7f565b60005b83811015611ccd578181015183820152602001611cb5565b50506000910152565b60008151808452611cee816020860160208601611cb2565b601f01601f19169290920160200192915050565b602081526000610ddf6020830184611cd6565b600060208284031215611d2757600080fd5b5035919050565b80356001600160a01b0381168114610faa57600080fd5b60008060408385031215611d5857600080fd5b611d6183611d2e565b946020939093013593505050565b634e487b7160e01b600052604160045260246000fd5b600067ffffffffffffffff80841115611da057611da0611d6f565b604051601f8501601f19908116603f01168101908282118183101715611dc857611dc8611d6f565b81604052809350858152868686011115611de157600080fd5b858560208301376000602087830101525050509392505050565b600060208284031215611e0d57600080fd5b813567ffffffffffffffff811115611e2457600080fd5b8201601f81018413611e3557600080fd5b61167b84823560208401611d85565b8015158114610f8757600080fd5b600060208284031215611e6457600080fd5b8135610ddf81611e44565b600080600060608486031215611e8457600080fd5b611e8d84611d2e565b9250611e9b60208501611d2e565b9150604084013590509250925092565b600060208284031215611ebd57600080fd5b610ddf82611d2e565b6020808252825182820181905260009190848201906040850190845b81811015611efe57835183529284019291840191600101611ee2565b50909695505050505050565b600060208284031215611f1c57600080fd5b813560ff81168114610ddf57600080fd5b60008060408385031215611f4057600080fd5b611f4983611d2e565b91506020830135611f5981611e44565b809150509250929050565b60008060008060808587031215611f7a57600080fd5b611f8385611d2e565b9350611f9160208601611d2e565b925060408501359150606085013567ffffffffffffffff811115611fb457600080fd5b8501601f81018713611fc557600080fd5b611fd487823560208401611d85565b91505092959194509250565b60008060408385031215611ff357600080fd5b611ffc83611d2e565b915061200a60208401611d2e565b90509250929050565b6000806040838503121561202657600080fd5b8235915061200a60208401611d2e565b600181811c9082168061204a57607f821691505b60208210810361206a57634e487b7160e01b600052602260045260246000fd5b50919050565b601f8211156107de57600081815260208120601f850160051c810160208610156120975750805b601f850160051c820191505b818110156120b6578281556001016120a3565b505050505050565b815167ffffffffffffffff8111156120d8576120d8611d6f565b6120ec816120e68454612036565b84612070565b602080601f83116001811461212157600084156121095750858301515b600019600386901b1c1916600185901b1785556120b6565b600085815260208120601f198616915b8281101561215057888601518255948401946001909101908401612131565b508582101561216e5787850151600019600388901b60f8161c191681555b5050505050600190811b01905550565b634e487b7160e01b600052603260045260246000fd5b634e487b7160e01b600052601160045260246000fd5b6000600182016121bc576121bc612194565b5060010190565b8082018082111561070b5761070b612194565b8181038181111561070b5761070b612194565b808202811582820484141761070b5761070b612194565b6000845160206122138285838a01611cb2565b8551918401916122268184848a01611cb2565b855492019160009061223781612036565b6001828116801561224f576001811461226457612290565b60ff1984168752821515830287019450612290565b896000528560002060005b848110156122885781548982015290830190870161226f565b505082870194505b50929a9950505050505050505050565b6000602082840312156122b257600080fd5b8151610ddf81611e44565b6020808252602d908201527f4552433732313a2063616c6c6572206973206e6f7420746f6b656e206f776e6560408201526c1c881bdc88185c1c1c9bdd9959609a1b606082015260800190565b60008261232757634e487b7160e01b600052601260045260246000fd5b500690565b60208082526025908201527f4552433732313a207472616e736665722066726f6d20696e636f72726563742060408201526437bbb732b960d91b606082015260800190565b60208082526032908201527f4552433732313a207472616e7366657220746f206e6f6e20455243373231526560408201527131b2b4bb32b91034b6b83632b6b2b73a32b960711b606082015260800190565b6001600160a01b03858116825284166020820152604081018390526080606082018190526000906123f690830184611cd6565b9695505050505050565b60006020828403121561241257600080fd5b8151610ddf81611c7f56fea2646970667358221220701976decedb09a714da15eeeab67adbedc8b3a2defd807b7e5c12b8adfeb2d264736f6c634300081200334552433732313a207472616e7366657220746f206e6f6e204552433732315265697066733a2f2f626166796265696437346a686b6467646a69746535677a7370616871686d696b7663376f327076786766763272356b6c617674756768716d7273342f68696464656e2e6a736f6e",
  "linkReferences": {},
  "deployedLinkReferences": {}
}